:020000040000fa
:080000000002040000000000f2
:020000040000fa
:0400080002030000ef
:020000040000fa
:04000c009a3b00001b
:020000040000fa
:04001000ac3b000005
:020000040000fa
:04001400a23b00000b
:020000040000fa
:04001800b43b0000f5
:020000040000fa
:04001c0002030000db
:020000040000fa
:0400200002030000d7
:020000040000fa
:0400240002030000d3
:020000040000fa
:04002800de020000f4
:020000040000fa
:04002c0002030000cb
:020000040000fa
:0400300002030000c7
:020000040000fa
:040034005839000037
:020000040000fa
:0400380002030000bf
:020000040000fa
:04003c0002030000bb
:020000040000fa
:0400400002030000b7
:020000040000fa
:0400440002030000b3
:020000040000fa
:0400480002030000af
:020000040000fa
:04004c0002030000ab
:020000040000fa
:0400500002030000a7
:020000040000fa
:0400540002030000a3
:020000040000fa
:04005800020300009f
:020000040000fa
:04005c00020300009b
:020000040000fa
:040060000203000097
:020000040000fa
:040064000203000093
:020000040000fa
:04006800020300008f
:020000040000fa
:04006c00020300008b
:020000040000fa
:040070000203000087
:020000040000fa
:040074000203000083
:020000040000fa
:04007800020300007f
:020000040000fa
:04007c00020300007b
:020000040000fa
:040080000203000077
:020000040000fa
:040084000203000073
:020000040000fa
:04008800020300006f
:020000040000fa
:04008c00020300006b
:020000040000fa
:040090000203000067
:020000040000fa
:040094000203000063
:020000040000fa
:04009800020300005f
:020000040000fa
:04009c00cc02000092
:020000040000fa
:0400a0000203000057
:020000040000fa
:0400a4000203000053
:020000040000fa
:0400a800020300004f
:020000040000fa
:0400ac00020300004b
:020000040000fa
:0400b0000203000047
:020000040000fa
:0400b4000203000043
:020000040000fa
:0400b800020300003f
:020000040000fa
:0400bc00020300003b
:020000040000fa
:0400c0000203000037
:020000040000fa
:0400c4000203000033
:020000040000fa
:0400c800020300002f
:020000040000fa
:0400cc00020300002b
:020000040000fa
:0400d0000203000027
:020000040000fa
:0400d4000203000023
:020000040000fa
:0400d800020300001f
:020000040000fa
:0400dc00020300001b
:020000040000fa
:0400e0000203000017
:020000040000fa
:0400e4000203000013
:020000040000fa
:0400e800020300000f
:020000040000fa
:0400ec00020300000b
:020000040000fa
:0400f000ce3200000c
:020000040000fa
:0400f4000203000003
:020000040000fa
:0400f80002030000ff
:020000040000fa
:0400fc0002030000fb
:020000040000fa
:0401000002030000f6
:020000040000fa
:0401040002030000f2
:020000040000fa
:0401080002030000ee
:020000040000fa
:04010c0002030000ea
:020000040000fa
:0401100002030000e6
:020000040000fa
:0401140002030000e2
:020000040000fa
:0401180002030000de
:020000040000fa
:04011c0002030000da
:020000040000fa
:0401200002030000d6
:020000040000fa
:0401240002030000d2
:020000040000fa
:0401280002030000ce
:020000040000fa
:04012c0002030000ca
:020000040000fa
:0401300002030000c6
:020000040000fa
:0401340002030000c2
:020000040000fa
:0402080002030000ed
:020000040000fa
:04020c0002030000e9
:020000040000fa
:0402100002030000e5
:020000040000fa
:0402140002030000e1
:020000040000fa
:0402180002030000dd
:020000040000fa
:04021c0002030000d9
:020000040000fa
:0402200002030000d5
:020000040000fa
:0402240002030000d1
:020000040000fa
:0402280002030000cd
:020000040000fa
:04022c0002030000c9
:020000040000fa
:0402300002030000c5
:020000040000fa
:0402340002030000c1
:020000040000fa
:0402380002030000bd
:020000040000fa
:04023c0002030000b9
:020000040000fa
:0402400002030000b5
:020000040000fa
:0402440002030000b1
:020000040000fa
:0402480002030000ad
:020000040000fa
:04024c0002030000a9
:020000040000fa
:0402500002030000a5
:020000040000fa
:0402540002030000a1
:020000040000fa
:04025800020300009d
:020000040000fa
:04025c000203000099
:020000040000fa
:040260000203000095
:020000040000fa
:040264000203000091
:020000040000fa
:04026800020300008d
:020000040000fa
:04026c000203000089
:020000040000fa
:040270000203000085
:020000040000fa
:040274000203000081
:020000040000fa
:04027800020300007d
:020000040000fa
:04027c000203000079
:020000040000fa
:040280000203000075
:020000040000fa
:040284000203000071
:020000040000fa
:04028800020300006d
:020000040000fa
:04028c000203000069
:020000040000fa
:040290000203000065
:020000040000fa
:040294000203000061
:020000040000fa
:04029800020300005d
:020000040000fa
:04029c000203000059
:020000040000fa
:0402a0000203000055
:020000040000fa
:0402a4000203000051
:020000040000fa
:0402a800020300004d
:020000040000fa
:0402ac000203000049
:020000040000fa
:0402b0000203000045
:020000040000fa
:0402b4000203000041
:020000040000fa
:0402b800020300003d
:020000040000fa
:0402bc000203000039
:020000040000fa
:0402c0000203000035
:020000040000fa
:0402c4000203000031
:020000040000fa
:0402c800020300002d
:020000040000fa
:0402cc000203000029
:020000040000fa
:0402d0000203000025
:020000040000fa
:0402d4000203000021
:020000040000fa
:0402d800020300001d
:020000040000fa
:0402dc000203000019
:020000040000fa
:0402e0000203000015
:020000040000fa
:0402e4000203000011
:020000040000fa
:0402e800020300000d
:020000040000fa
:0402ec000203000009
:020000040000fa
:0402f0000203000005
:020000040000fa
:0402f4000203000001
:020000040000fa
:0402f80002030000fd
:020000040000fa
:0402fc0002030000f9
:020000040000fa
:0403000002030000f4
:020000040000fa
:0403040002030000f0
:020000040000fa
:0403080002030000ec
:020000040000fa
:04030c0002030000e8
:020000040000fa
:0403100002030000e4
:020000040000fa
:0403140002030000e0
:020000040000fa
:0403180002030000dc
:020000040000fa
:04031c0002030000d8
:020000040000fa
:0403200002030000d4
:020000040000fa
:0403240002030000d0
:020000040000fa
:0403280002030000cc
:020000040000fa
:04032c0002030000c8
:020000040000fa
:0403300002030000c4
:020000040000fa
:0403340002030000c0
:020000040000fa
:100400000f9520000e7f22000e01880000000000e2
:10041000000020000000e000020032000001200087
:100420002002880014000700780007000000e000a8
:1004300003003a00808323000100200002003700ff
:100440000000200001002000810f70000100320038
:1004500014000700000020000000e000020032004d
:100460000000020000000000bc2a020000000000a2
:100470000040da000000fe004440a900807820001f
:100480000000e0000300320000002000a00188000e
:100490004440a800000006008a1f78008b1f7800e7
:1004a0000000060091018800800478000000eb0045
:1004b0001a003700e284440032a0b4009905ba0063
:1004c000e284440032a0b4009906ba00e2844400f9
:1004d00032a0b4000006eb00476fde00fd07b2005b
:1004e000636ce10003003a00ebff07000000eb0043
:1004f0000a003700606ce10004003a00005deb0088
:100500008b05e900fdff3e00040037006168e10053
:10051000010032000086eb000b00070019c7ba008b
:100520001905ba000e04e00003003a000a00e000da
:10053000e0ff3a0000000600fe07b2009e018800be
:100540008a047800f5ff3700395dba008b05e900b1
:100550000c003200295dba008b05e900080032006a
:100560000c00e00003003a00e284440032a0b40032
:10057000f5ff370019ddba008b05e900faff3a00f4
:100580008904e800e184440032a0b40000000600c1
:100590001e0d040000000000801f78000000fa001b
:1005a00010c0b3001be8b70097a0a90087a0a9005e
:1005b0000080fa004f00780000400600801f78009d
:1005c0000000fa0010c0b3001ae8b7009400a900b8
:1005d0008400a9000080fa004f0078000040060067
:1005e0000000fa0087a0a9008240a80097a0a800f8
:1005f0008400a9008200a8009400a8000080fa00ee
:10060000000006000040da000000fe0000000500c7
:10061000889fbe008a9fbe008c1f7800960007004e
:100620009d00330003866c006450e1002e00320010
:100630006420e100330032006150e1002f003200fd
:100640006120e1003100320085855500eb07b000e4
:1006500009002000080420000500370008044400b9
:1006600089844c000a0031000603430087834b0055
:100670000001530081815b00f8ff33000203be00dc
:100680000800a0000804440089844c00f6ff3900eb
:10069000c639dd0083017300010032001300200021
:1006a0008904d1000884d3000998a3000500320012
:1006b0000800a7000300a0008904d1000884d3002b
:1006c0008b05e8008904d1000884d3000001eb0009
:1006d0000281d2002d00070001f0a1000cf0a7005c
:1006e00001f0a000750037006420e10077003200bf
:1006f0000801be000200be00f7ff37006120e100e4
:10070000720032006000b800f3ff370000002000e4
:1007100001f82700f0ff37000001be00410007008c
:100720000470a70003f0a10003f8a30013003a002f
:100730006509b10010003200090035006928e100a8
:100740000200350001002800000005000000400004
:10075000818048008502e900fcff3a0000000600a5
:10076000f88f4200050035008100d1000080d300e1
:100770008502e800fcff3a00000006008000eb0064
:10078000000005006011b8008700370081002000dc
:10079000618055000b003d000b00200061fe2f0022
:1007a0000100e1001d0034008281710061016400dc
:1007b0008904d1000884d3000000e800faff3a0061
:1007c00071002000610064000300700002006000fe
:1007d0000900320061044400e0844c000988a5004f
:1007e000050032008b05e8006808e10002003a00cd
:1007f0008904d1000884d300f20f20000258e100e0
:1008000005003d00c75ddd00f907b2008980750075
:1008100008007800000006000bf827008b00780025
:1008200000000500c70ade00f107b200f50fb200b4
:1008300008003200e1cf4200020032000170a00047
:1008400024000500810f700001003200040805003b
:1008500044000500810f700002003a0014000500fa
:100860008502e9000000400081c04800fcff3b0019
:100870000170a000240005000004be00e9ff07008d
:100880000003be000405be000200be00e5ff070035
:10089000844f7500000006000200be006450e100b5
:1008a000050036006420e100020036000968a3005c
:1008b00001003a000800be000160a0004f06780069
:1008c0004f05be004f04be0000000600f0ff2f00e1
:1008d000f1ff2700f9ff3700889fbe008a9fbe0006
:1008e0008c1f7800e4ff0700ebff330003866c00e9
:1008f0006450e100240032006420e100270032004f
:100900006150e100220032006120e100210032004c
:100910008b854200eb07b1000134b800003ab80003
:100920000804420089844a00013ab8000030b80047
:100930008880400009014a000400330000004000a4
:1009400081804800020149008b05e900c909dd00ea
:10095000830170000100320013002000c814de0083
:100960004814dd004709de001200b200c808de00ae
:100970000884700085ff070001f0a1000cf0a700bb
:1009800001f0a000cdff37006120e100cfff320071
:100990000801be000200be00f7ff37006150e10011
:1009a000fcff3a00c9ff3700889fbe008a9fbe0047
:1009b000008270000402710004827100260032007f
:1009c0000004be000200be006011b8006b092000e8
:1009d000950220000182cf000a0039000541b100d4
:1009e0000082cf00070039000541b1000982cf0025
:1009f000040039000541b1000882cf000100390030
:100a00000541b10005425200120032000a003b00cd
:100a100082817100610164008100d1000080d300f7
:100a20008984d3000884d3008b05e8000442e800e1
:100a3000f7ff3a00070037000804440089844c009f
:100a400000004800818048008b05e9000442e9006d
:100a5000f9ff3a004dff07004f05be004f04be00ee
:100a600000000600020037000204e0000b00320024
:100a7000810178000002780030417800b14f5100c8
:100a8000f9ff32001000200014427800934f52000a
:100a9000030031000080eb00000006000000eb00c6
:100aa000000006000e00fa00889fbe008a9fbe006c
:100ab0008c1f7800a0bf9f00010478000205be00d3
:100ac00080047800880078006c80570032010700ad
:100ad00068066000000278000430a100e10f5200b7
:100ae00013003a00f481570008017800afb897006e
:100af00009007800400007000000e00002003a0012
:100b00006000b800030037000fb897009fb8970047
:100b1000ed0b0700c0b79f00d1b79f006fb19700e2
:100b2000ffb197000a0141008b8149001600370090
:100b3000e20f520018003a0014002000f481570020
:100b400008017800afb8970009007800a3010700fa
:100b50000000e00002003a006000b8000300370027
:100b60000fb897009fb89700d70b0700c0b79f003a
:100b7000d1b79f006fb19700ffb197007880570001
:100b8000250307000a01be004fb09700dfb09700b1
:100b9000b40207000c0037000000200001f8270015
:100ba000e30f5200050032006000b800e40f52006d
:100bb00005003a00f0ff2f00f1ff2700c0b79f00ab
:100bc000d1b79f0002003700c0b79f00d1b79f0088
:100bd0004fb09700dfb097000c00e000010032003a
:100be00001f0a2004f0678004f05be004f04be0082
:100bf0000080fa0000000600ea874700889fbe00d8
:100c00008a9fbe008c9fbe008e1f7800d0b79f00c9
:100c1000e2b79f00030478006922b90084067800d7
:100c20000006eb00010037001c0020008105780061
:100c30008b00780000c3b300b14f1000faff320000
:100c4000000ceb0038147800080578008004eb00f5
:100c5000290037008d8f540017003d0092002000be
:100c6000110009008204d8000100e00003003a00ee
:100c700064054500000deb003a1578001b02fb00ef
:100c8000cfa2de000403b1000580b100a200200065
:100c9000030020001a00be00f4b79f0085bf9f002c
:100ca000160c07007fb297008fba9700001d420014
:100cb00001954a000d0037001000200001002000bf
:100cc000180c4000589448008d8f540008003a00da
:100cd00040c3b3009b4f10000500340012002000f9
:100ce000030020001a0d41005a9549008904e800cc
:100cf0008b05e8001c0020001b4078008000fb00f2
:100d00000103b100e98f5000d2ff36008d8f5400ef
:100d1000010034008d047800e1c2b300814f50001f
:100d200001003a008b05e8000900e0002b003a00c2
:100d30000b007800050037000081eb008081eb009c
:100d4000180c4100589449001c00200080057800d0
:100d500001c3b300b0cf1000f7ff32001f0037000f
:100d60008d8f54001c003d009200200011000900ee
:100d70008204d8000100e00003003a006405450049
:100d8000000deb003a1578007bfa97000402fb0097
:100d9000cfa2de000403b1000580b100a200200054
:100da000030020001a00be00f4b79f0085bf9f001b
:100db000d20b07007fb297008fba9700001d420048
:100dc00001954a008904e8000080eb008080eb0078
:100dd000180c4000589448001c0020000b077800b5
:100de0008e0578003b00fb000003b100e90f5000c6
:100df000dbff36008c0578009d0020001100090003
:100e00008d04d8000100e0001600320081865600f3
:100e10001a01be00e00f5100e08f590007003200b8
:100e20000d00e9004200dd00418e200000804000fe
:100e30001000be00b10b0700008dbe008984460083
:100e40006168b900181c10001894180005003700dc
:100e5000e98454009200200003002000180c410097
:100e600058944900e88f5400040034002a00be0062
:100e7000e00f5000e08f5800f5ff32000c00e0005a
:100e8000340032001e40780051c6b300814f50003c
:100e90000300320051c4b300814f50002c003a00cf
:100ea0005e457800b0c2b300804f550003003200a9
:100eb000d1c2b300814f550002003a000e07e8008e
:100ec00001003700004578000e0678006000b80089
:100ed0008005eb000f003700f20f2e00535f20005b
:100ee000820f5000838f580009003c00a2002000b0
:100ef00003002000810b07000d01fb00cf91de00f5
:100f00000203b1000380b10002004000838048006a
:100f10001b0020000c0778000e067800bc46780005
:100f20000d01fb000203b100e90f5100eaff36009a
:100f3000d2c2b300824f550002003a006000100098
:100f4000e0801800180c4000589448000100370059
:100f50008c057800efb197000300e0000500320037
:100f60000b00e00001003a005fb797006fb09700f8
:100f70000e08780092002000110009008204d800b9
:100f80004f0778004f06be004f05be004f04be005d
:100f9000af00b10000000600889fbe008a9fbe001f
:100fa0008c9fbe0000047800010678009804780049
:100fb000890578000b0578008a057800bb46780023
:100fc0000d00fb008b0107000000e000f9ff3a0074
:100fd000d0c2b30080cf560003003a000b05780062
:100fe00081002000050037008000eb00b0c2b30094
:100ff00080cf560001003a000b0578001a407800b7
:10100000e2c6b300824f500003003200e2c4b300d6
:10101000824f500027003a008a0078005141780042
:1010200010c6b300804f5100040032000000eb00f6
:1010300013c4b300834f51005c003a005141780063
:10104000e0c6b300804f5100040032000000eb0006
:10105000e3c4b300834f510054003a008104780088
:1010600080c2b300d94f10000b003a006405450060
:101070008a057800ba4678000d00fb004f01070092
:101080000000e000faff3a00f0c5b30080cf560040
:10109000f7ff32000100370089057800400020008a
:1010a00091c2b3009bcf100040003a008b04e800cf
:1010b0003e00370092c6b300824f5000030032005a
:1010c00092c4b300824f50003c003a005a4178006d
:1010d000e0c6b300804f5100040032000000eb0076
:1010e000e3c4b300834f510030003a005a41780006
:1010f00060c6b300804f5100040032000000eb00d6
:1011000063c4b300834f510028003a008a0478007a
:10111000010078003000b300d940780092c6b300d7
:1011200082cf50000300320092c4b30082cf50003f
:101130001e003a008900780051417800e3c6b300f0
:10114000834f510003003200e3c4b300834f5100ca
:1011500016003a005141780093c6b300834f510006
:101160000300320093c4b300834f51000f003a00d4
:101170005141780043c7b300834f51000300320050
:1011800043c5b300834f510008003a005141780035
:1011900093c7b300834f51000300320093c5b300df
:1011a000834f510001003a008104e8000c00e00088
:1011b00005003200090e78000300370001007800b6
:1011c0000000a0008a047800090c78004f06be00d9
:1011d0004f05be004f04be0000000600e887470030
:1011e000889fbe008a9fbe008c9fbe008e1f780025
:1011f000e0b79f0082047800030478006722b900fa
:101200000006eb00010037001c002000810178007f
:1012100000c3b300b14f1000fbff3200000ceb0025
:1012200038147800880578000005eb002a003700a4
:10123000840f550016003d007200200011000900c7
:101240000205d8000100e00003003a00e4854500f3
:10125000800deb00bb1578001b06be00446bdd0063
:10126000cc63de00870373004463dd00a1882000a7
:101270000180520041872000614078000000fb009f
:10128000cf80de00801d430081954b0010003700a9
:101290001000200001002000180c40005894480065
:1012a000840f55000b003a00a188200001805200f5
:1012b0004187200061407800e74f5000050034006e
:1012c00010002000010020009b0d4000db9548002d
:1012d0000a05e8001c002000830678008d017800d4
:1012e000334778008e00fb0062012000a0882000b8
:1012f000f3b79f0084bf9f0042060700800278007a
:10130000ffb197000fba97000500e000c8ff3a0050
:10131000840f55000100340004057800e0c2b300da
:10132000804f570001003a008d06e8000a00e000f7
:1013300029003a000d007800050037000081eb001d
:101340008081eb00180c4100589449001c002000db
:101350008006780001c3b300b0cf1000f7ff320061
:101360001d003700840f55001a003d007200200058
:10137000110009000205d8000100e00003003a0056
:10138000e4854500800deb00bb1578001b03be0013
:101390004439dd00cc31de00830171004431dd00d1
:1013a000a188200001805200418720006140780020
:1013b0000000fb00cf80de00801d410081954900c8
:1013c0000a05e8000081eb008081eb00180c410069
:1013d000589449001c0020000d0778008e06780004
:1013e000bd00fb0062012000a088200084bf9f0098
:1013f00004060700800278000fba97000500e0009d
:10140000d8ff3a000c017800730020001100090099
:101410000305d8000100e0001300320001805100f4
:10142000c200dd001b02be008100e90003003300a2
:101430000402420085824a00fbff3700848dbe0013
:101440000a054000cf80de00181c10001894180018
:1014500005003700670555007000200001002000de
:10146000180c400058944800e60f55000400340062
:101470002b00be00e00f5000e08f5800f5ff320057
:101480001800be00420add00ce02de0085027200b6
:101490004202dd00048cbe000c00e0003800320087
:1014a0001e40780001c7b300814f50000300320096
:1014b00001c5b300814f500030003a000e0678009d
:1014c000dc457800b0c2b30080cf55000300320085
:1014d000d1c2b30081cf550002003a000c06e800eb
:1014e00001003700804578006000b8000001eb0083
:1014f00013003700f20f2e00535f2000820f5000c0
:10150000838f58000d003c00a20020000300200043
:1015100084bf9f00f5b79f00f80907000d01fb008d
:10152000cf91de000203b1000380b1000200400051
:1015300083804800ffb297000fba97001200200086
:101540000c0778000e067800bc4678008d01fb0081
:101550000303b100e98f5100e6ff3600d3c2b300a8
:1015600083cf550002003a0060001000e0801800b0
:10157000041c400005944800010037000c0178006d
:101580000900e000040032000200e00001003a001f
:101590006fb797008e0c78007200200011000900d0
:1015a0000205d8004f0778004f06be004f05be0069
:1015b0004f04be008f00b100000006000003b10020
:1015c0000b0035009000b100080034008000b1002d
:1015d000070035009001b100040034007000b10034
:1015e000030035009001b10001003c00100005002f
:1015f000000005006900e100040035006d00e10015
:10160000030034000002b1000100320000000500b8
:10161000100005000600fa00881f7800000478001a
:101620008800780068805700d2bf9f00e3bf9f000a
:10163000d40007005fb99700efb997001800be000b
:10164000a5fc0700008cbe004fb99700cf91de00cb
:1016500008007800700007004f0478000080fa004e
:10166000000006000400fa00889fbe008a1f780070
:10167000b0bf9f00c1bf9f000204be00e00f510039
:10168000e08f59005e0032006011b800dd080700ed
:101690000000e0005a003200e00f5400e08f5c00d0
:1016a0002a003d0060041400e0841c000005eb00eb
:1016b0000000200001f823000808a3000500320004
:1016c000c251dd00e2912000028141001201be0002
:1016d00081fc07008904d1000884d300e00f540086
:1016e000e08f5c00030032000a05e800e50f5500ba
:1016f000f1ff3a000001be000000200001f82300c5
:10170000c3fb07000001be006a805700c1ff07004d
:101710000000e00032003d00e00f5400e08f5c006c
:1017200037003200e2112b00f3a420006a8057003a
:10173000b8ff07000000e00029003d0061045400ec
:10174000e0845c00f7ff3a00290037000005eb0059
:101750000000200001f823000808a3000500320063
:10176000c251dd00e2912000028141001201be0061
:1017700059fc07008984d1000884d300e00f54008d
:10178000e08f5c00030032000a05e800e50f550019
:10179000f1ff3a000001be006a8057009dff07007c
:1017a0000000e0000e003d00e00f5400e08f5c0000
:1017b00013003200e25a2c00d34927006a805700f8
:1017c00094ff07000000e00005003d0061045400a4
:1017d000e0845c004240a900f6ff3c0004003700b2
:1017e0000000e00002003a00000120000300370082
:1017f000e10f500002003a00800020008500070041
:101800003fb89700cfb897004f0578004f04be004f
:101810000080fa00000006000400fa00889fbe0065
:101820000004780088047800590078004702de0040
:1018300084007800f10fb200e14f420009003a0045
:1018400080007800f107b200200020004a003a0032
:10185000100020001800e0004700320020002000a7
:10186000450037000100e0000a003a000800780057
:10187000c2bf9f00d3bf9f00ff0407008000780015
:101880000000eb004fb99700dfb997000100e000be
:1018900039003c004f88de0002814000830148008f
:1018a000e00f2000800f5100e08f59000900340044
:1018b0000000200001f827001900e00002003d00b0
:1018c0000000200001f82f00008cbe001000200056
:1018d00029003700e00f5100e08f59000500340067
:1018e0004711dd00f007280019006000800c71002e
:1018f0002000370099007800000028000080600078
:10190000f10fb2000170a000810c7800610151005c
:10191000e0815900f70f4100e08f490004003d00cd
:10192000800c7800000ceb000000eb001200370088
:10193000ef0f410003003d00010c7800800ceb002c
:10194000700141000201ea0009003200f0001100bc
:10195000990178008119dd00980078008208de0086
:10196000018c7100990078000209de00820c780079
:10197000990c70000080eb004f04be000080fa005c
:1019800000000600889fbe000004be0000f827008b
:10199000590060004700de00f20f2000820f500067
:1019a0000a003a00000ceb00f20720001901610068
:1019b0002000200015003a00100020001100e00077
:1019c0001200320020002000100037000000e0006c
:1019d00004003a0001007800a70407000000e000be
:1019e00008003c00f20728001901610001f0230003
:1019f000810c710021f82f00010c40000080eb00e9
:101a000002003700000ceb000000eb004f04be00aa
:101a100000000600e5006000030032001002200014
:101a2000404a880000000600780060000200320092
:101a300020022000404a880000000600889fbe0067
:101a4000000478001800900082047800808f540011
:101a50000100360080047800180078000901780041
:101a600072040700188c440018009000890450008c
:101a700019049800080078004f04be00000006001a
:101a80000400fa000100e00003003a000f80e900c2
:101a9000e0bf9f0002003700e0bf9f008100e90027
:101aa000f1bf9f00ec8157002fb99700e4805700e9
:101ab000e0d1200004000700efb897008048eb0059
:101ac0000080fa00000006006200fa00889fbe0055
:101ad0008a1f7800000578008104780002047800ed
:101ae0008300780080f92f000f004000a006070057
:101af0009a979f00a9979f000000eb00b09f9f005e
:101b00001885fb008a04fb000a05ea004f55de0039
:101b100050022000808f54000d003200e10f55006c
:101b20000b003a000a017800880078002f90970097
:101b30009f91970003000100a0979f000000e00024
:101b40008e0032003f9897000000e800b09f9f0091
:101b50000a04440050022000808f54000400320028
:101b60000900e000e6ff3a003f9897008400370044
:101b70000000eb00909f9f00809f9f00f0979f00c8
:101b8000e0979f00d0979f00c0979f000700370005
:101b9000819120000100500000004000c190200011
:101ba00061007800df98970001007000d09f9f00cf
:101bb0008804780009047800384578008a00fb0022
:101bc00080912000200407000000e000f0ff3a00b0
:101bd000a1c2b300814f55000e003a00cf88970094
:101be0000180e900c08f9f0010007800c09f9f0017
:101bf0000000e00005003d000000ea00c09f9f00db
:101c00005f9897000020a000d09f9f000904e80083
:101c10000f003700c09f9f000000eb000500370059
:101c2000f2ff2700820f5000020032006a01b90063
:101c3000028040000904780088047800b900fb00a5
:101c40000103b100e98f5000f5ff3600c09f9f00ef
:101c5000e0c2b300984f1000020032000080eb0099
:101c600019003700a0c2b300d84f100007003a0097
:101c7000cf8897000180e900c08f9f001000780096
:101c8000a09f9f000804e800100037000000eb0050
:101c9000a09f9f008800780005003700f3ff270011
:101ca000830f5000020032006a02b90004004100b4
:101cb00001047800880078003101fb000203b100c4
:101cc000e90f5100f5ff3600a09f9f00984478006f
:101cd0008900fb0040902000db0307000000e000cb
:101ce000020032000804e800010037008044eb00e5
:101cf000c97f9f0080c6b30080cf540004003a0023
:101d000098cf14000a003a006640500006003700e1
:101d1000c0c6b30080cf540005003a0098cf14002d
:101d200003003a0065404000c07f9f000804e800bf
:101d30001801fb00e3fb2f008f81410081f92f0088
:101d40008f804000a0f92f000f0040001000070016
:101d50000000e00009003a00e1fb2f008f80400006
:101d6000a0f92f000f004000450507000000e0002b
:101d7000020035000804e80061ff37000080eb0036
:101d80004f0578004f04be000080fa0000000600f6
:101d9000889fbe008a1f7800000478008244780083
:101da0000305780070c6b30080cf54001a003c00d1
:101db00000c0e90080cf5400c5003d006d405000d8
:101dc00080cf5400740032000b003c007140500082
:101dd00080cf54002d013c0000c0e90080cf5400aa
:101de000bb003d0050c2b30080cf5400240132003c
:101df0007c4040000500370030c6b30080cf54005f
:101e00001a0032001e003c0000c0e90080cf5400e0
:101e10001e013a00ae003700f0c6b30080cf540078
:101e20005d00320007003c006640500080cf540047
:101e3000130032006540400080cf540013013a0087
:101e4000cc00370050c7b30080cf5400520032009e
:101e50006340400080cf54004f00320002c7b300ff
:101e600082cf540009013a00f70037001181e900e0
:101e70008208780078009000127578000901370018
:101e800028609000c2c6b300824f500007003a009d
:101e90001101780064005100800878001000be0035
:101ea0004f89de00820178001100370012c7b300ad
:101eb000824f500003003200a2c6b300824f500090
:101ec00006003a001101780068005100800878008f
:101ed0005001be004000be00050037001180e9003f
:101ee0008008780010007800cf80de006109b9001a
:101ef000009cbe000294be002862900085c6b3001c
:101f0000854f52000d00320025c6b300854f5200a8
:101f100004003a000000fb00cf80de006109b90038
:101f20000800370045c7b300854f52000300320058
:101f3000e6c24200854f520004003a00cf80de0026
:101f40006109b900009cbe000294be003802be00c8
:101f50002803be0078009000d1c2b300e00f520009
:101f6000e08f5a00e00f5b00e08f5b000800350057
:101f7000881090000118a30002003200b1c2b30023
:101f8000030037000108a3004c00320001c2b30077
:101f9000017578004700370028609000c2c6b30082
:101fa000824f500006003a00110178006400510091
:101fb000800878001000be006011b80011003700e2
:101fc00012c7b300824f500003003200a2c6b30014
:101fd000824f500006003a0011017800680051005d
:101fe000800878005001be004000be0005003700a8
:101ff0001180e90080087800100078008000eb0074
:102000006011b800009cbe000294be0028629000df
:1020100085c6b300854f52000d00320025c6b300bf
:10202000854f520004003a000080fb008000eb0066
:102030006011b8000800370045c7b300854f520053
:1020400003003200e6c24200854f520004003a000d
:102050008000eb006011b800009cbe000294be003e
:10206000081090000038a300140032003800be00b1
:102070002801be00e00f5000e08f5800e00f59002b
:10208000e08f59000d00320080c7b30080cf5400ac
:102090000300320080c5b30080cf540007003a002f
:1020a0007800900001c3b300017578000000e800db
:1020b000097578000000e80070049800780090002e
:1020c000000545006a0498008940780069003700df
:1020d00028619000c0c4b300804f510006003a0050
:1020e0001101780068005100800878005001be009e
:1020f0004000be0005003700110178006400510067
:10210000800878001000be001f060700009cbe007b
:102110000294be00b8009000780090000100e0003a
:1021200002003d00d1c2b3000800370088109000c3
:102130000118a30002003200b1c2b300030037004f
:102140000108a3000400320001c2b3000175780049
:102150000000e80070049800780090000005450039
:102160006a0498008900fb0008007800530007000b
:102170004e00370028619000c3c6b3001180e9000b
:10218000834f5100240032000a003c00e4c151009a
:10219000834f51002700320083c1e800834f510074
:1021a0001500320020c6b300804f510020003a00d5
:1021b0000a00370043c7b300834f51001d003200af
:1021c000e6c14100834f51001a00320010c7b3002e
:1021d000804f510016003a00060037001180e900d8
:1021e0008008780010007800485c9000084878006b
:1021f0002e0037001180e900800878001000780078
:10220000680a9000cfa2de00612bb9000498be00de
:102210000690be0025003700800878001000780086
:1022200068099000cf91de000288be001f003700d1
:102230001180e9008008780010007800680c900098
:1022400008087800190037001181e9008208780039
:1022500012027800cfa2de00612bb900049cbe0000
:102260000694be00f8009000010545006a0498003d
:102270008040780008007800d20207000b00370089
:10228000780090000975780006003700780090000b
:10229000000545000904e00001003a0059c2b300fe
:1022a000094d78000000e800700498000000eb0081
:1022b0004f0578004f04be00000006002f04b00058
:1022c000889fbe008a9fbe008c9fbe008e1f780034
:1022d0000007780081f79f003e04be002e05be0077
:1022e0005e0890000000e00002003d006000200059
:1022f000500f98008e00780020fb2f000f00400048
:1023000086020700e20f50000a003a003000200069
:10231000100f9800b1c9b3000ff097008140400042
:1023200000822000e1cf50000d003e00c08120005f
:102330000b0037000000e0000f00340030002000e8
:10234000100f9800b1c9b3000ff197008140410010
:1023500080822000e1cf500001003e00408220003a
:10236000ee009000b0487800b06878001040780027
:1023700090409800f30037000000e00005003a00ac
:1023800022fb2f000f014100001978008001eb00b3
:10239000e70037006022b8006033b8000800be00d4
:1023a0000a01be00c00407000000e00001003d007b
:1023b0000bf0a200705927009f9897000088b90081
:1023c000026a2800130020001b0507006406500065
:1023d0009c9f9f0013003b0063061600c0ff2f0068
:1023e000000666008c01ea00939f9f00cd822000ca
:1023f0000800be000a01be00070037000c08a30059
:10240000030032003d02be002d03be00b1050700ef
:102410000c86d100e88646000c00e000f7ff3c0087
:10242000180037000c00e00018003200c0ff2f0039
:10243000000666009c9f9f00cd8220006000b800cf
:102440000200200003ff2300070037000c08a30050
:10245000030032003d02be002d03be009d050700b3
:102460000c86d100e88646000c00e000f7ff3c0037
:102470000002be000203be000800be000a01be004a
:10248000930407000004be000205be00de089000b1
:1024900060c6b3000ff29700804f52000400320074
:1024a0006000200062c4b300824f520002003a0074
:1024b0009f9a97006a80420081004000f1b79f0018
:1024c00001037800f30f53000200340037012000ad
:1024d000f7b79f0000c3b300c0779f0056fb2f00e3
:1024e0000f0343000e007800a0b79f000607780096
:1024f0003d0037000800be000a01be00430507008a
:102500000006be007fb1970068015100f2b79f003e
:102510004240a9000c003400680507000002be001c
:102520000203be000800be000a01be00de0507006f
:102530006022b80046782d00771924006505070051
:102540000004be000205be00e80047008e00200027
:102550000802be000a03be00b4b79f00c5b79f00c3
:10256000d6b79f00e7b79f000c01be0001047800ba
:102570000c003700a400200005002000c0fd2f0043
:102580000f0040008a0107006fa89700ffa897007e
:102590000fb197009fb1970005c3b30005644100d8
:1025a0000001be00e00f5100e08f5900030034002d
:1025b0000e07e900e10f4700eeff3a0088007800bf
:1025c0003fb49700cfb497005fb59700efb5970081
:1025d0000200370000c3b300806078000e07e900f6
:1025e000fcff3b00688740007fb397000600e000d7
:1025f000070034006022b8006033b8000800be0055
:102600000a01be002d0407000000e000b9ff3c00f5
:102610000e0378002fb7970051fb2f008f804000ea
:10262000010353009f9b970067804300909f9f008a
:10263000020037000603e9000000e900010178000c
:102640008200780003c3b300b1cf1100f9ff32005c
:10265000909f9f00de09900061c6b3000ff29700c3
:10266000814f52000300320061c4b300814f520019
:1026700002003a000000e8000a00370010002000c5
:1026800051c6b3008ff2970081cf5200050032008f
:102690000540780050c4b2000080fb000000e90053
:1026a0004f00de0083014000868f5100010034009e
:1026b000860178000300e0001d00350000c3b30070
:1026c000868f510006003d0062c2790069404000db
:1026d00041c3b300814f520001003c0069405000eb
:1026e0008300e90081004100010037008401780087
:1026f0000302e90001037800a142780080cf520074
:10270000faff320091c3b300814f500001003a003c
:10271000054be8000400e00005003d000201e9006f
:102720008301e8001f9b97000603e800969f9f0027
:102730008ff397008700fb001f9a97000e00780028
:10274000060007004f0778004f06be004f05be0089
:102750004f04be002f04b10000000600f0874700c0
:10276000889fbe008a9fbe008c9fbe008e1f78008f
:1027700000047800814478000205be000406780059
:102780000b00e00002003c001b002000ea94200047
:1027900060c6b30080cf54000e00320060c4b300a6
:1027a00080cf54000b00320070c6b30080cf5400bd
:1027b0000300320070c4b30080cf540081003a009f
:1027c000e40f46007f00350058089000800f560047
:1027d0007c003d000c06e80060c6b30080cf5400ca
:1027e0001000320060c4b30080cf54000d003200ee
:1027f000081090000038a30004003a005808900028
:10280000808f550001003d005b0c98005808900037
:102810000c005000500c980002003b000000eb0040
:10282000500c980018089000e80090000c00e000a0
:1028300026003c0002c3b300827078000000e8006c
:10284000100c9800d80890000100e00003003c0044
:10285000881090000138a30005003200e8009000c5
:10286000e2c2b300827078000000e800100c98000b
:10287000580890008c00ea00810f500001003d00d4
:102880000006ea008c00ea00210c980000064600d1
:102890005c0c98008b0f5600010034000b0678008a
:1028a0003c0c9800e8009000180890000080400060
:1028b0000c0178008a007800dc00070058089000be
:1028c0000c0650004c0c9800900037008c8f55007f
:1028d00018003d00008040000b0178008a0078005d
:1028e000d20007001808900000804500100c9800e6
:1028f0008b0556002b0c9800d80890000100e000d2
:1029000003003c00881090000138a300060032004c
:10291000e8009000e2c2b3008270780038089000ae
:102920000000e800300c980058089000400c980017
:1029300076003700008040000c0178008a007800a3
:10294000ba0007001808900000004600100c98001c
:102950008c855500d80890000100e00003003c0081
:10296000881090000138a30005003200e8009000b4
:10297000e2c2b300827078000000e800100c9800fa
:1029800058089000808f55000100340080057800c1
:10299000e800900018089000008040008c0045007e
:1029a0000b017800a1000700180890000b00400000
:1029b000100c9800580890008b0550002b0c9800c4
:1029c0005200370018089000e80090009a707800d4
:1029d0000000e800100c9800d80890000100e0000a
:1029e00003003c00881090000138a300050032006d
:1029f000e8009000e2c2b300827078000000e800b6
:102a0000100c9800580890000000e00010003400fe
:102a10008b05e900808f55000100340080057800a7
:102a2000e800900018089000008040008a00e8004c
:102a30000b0178007d000700180890000b00400093
:102a4000100c9800580890008b0550002b0c980033
:102a5000e8009000180890000080400009587800b5
:102a60000007e8000c00e00004003500b1c2b3002c
:102a7000014878008e04780004003700d1c2b3000a
:102a8000014878008e0478000c06ea007d85570026
:102a90008006eb0009003700a20020008c007800bf
:102aa00072805700310007007fb097008fb8970001
:102ab000016d7800000678008d06e8000c00e0004b
:102ac000f5ff3c000d00e00009003a008e0478009c
:102ad00000c3b300805c7800050037008d06e90074
:102ae000fc80570061c07e0002c3b300825c4000de
:102af0000d00e000f9ff3c00e8009000180890008d
:102b00000080400080845400390c98000810900028
:102b100074006000f00f50000e003a00980890001a
:102b20007800900000804000a8089000010040005c
:102b3000b808900001004000c80890000100400063
:102b4000f8089000810f500002003d000080500006
:102b5000000c98004f0778004f06be004f05be00de
:102b60004f04be000f01b100000006008002780093
:102b700001037800110009000203d80080017800e9
:102b8000830a78000299b90002015300920298006a
:102b90000500780000000600504a80000000e000b8
:102ba00001003200000001008094200000000600b7
:102bb000881f78008a9fbe008c9fbe0000047800aa
:102bc0000205be000406be000401be000a00be00ed
:102bd00019030700008cbe000c01be00470407006b
:102be0000005550081855d002a0498003b0498008b
:102bf000080078004f06be004f05be004f04780065
:102c00000000060003003700b0cf100005003200be
:102c10000201e900800178000200e000faff3a00ba
:102c20000000050003007800000006008001780025
:102c300002003700b15978000201e9000200e0000b
:102c4000fcff3a0000000600020037000304e00029
:102c5000060032000001780002007800b0417800e0
:102c600081cf5100f9ff3a00010037000001eb006d
:102c7000020078000000060080007800d101780092
:102c80000400280004826100f307b2008308780082
:102c9000120020000e003a00900178000300e000ce
:102ca0001b003200830878000008eb0012ff2f00a1
:102cb000070037008381410090027800cf2ade00b0
:102cc0008588710090017800038841000201e900c5
:102cd00091017800f5072000858f5100f5ff36003f
:102ce00005003700cf19dd009002d1000588710082
:102cf0009108d1000201e80091017800f50f200051
:102d0000858f5100f7ff3e00f007200080886100aa
:102d1000910872000200780000000600889fbe0043
:102d200000047800e68440001900d0004500de0071
:102d3000f27f2000820f500010003a00000ceb00e0
:102d4000990478006f816400200020001b003a0085
:102d5000210190000200e00018003a0011019000eb
:102d60000200e00015003a00100020001100e00011
:102d70001200320020002000100037000000e000a8
:102d800004003a0001007800fb0107000000e000a9
:102d900008003c00f20028001901610001fe230038
:102da000810c710021c02f00010c40000080eb005d
:102db00002003700000ceb000000eb004f04be00e7
:102dc00000000600fc874700889fbe008a9fbe0067
:102dd0008c9fbe008e1f78000006780080c5b3006f
:102de00080cf50000a0032007740400080cf500072
:102df0000a0032006940400080cf50000b003200d2
:102e0000308b200080bf9f00ae0020000a003700fa
:102e1000228a200082bf9f0006003700338b2000eb
:102e200083bf9f008e00200003003700348b2000fa
:102e300084bf9f000e0120003c02be002c03be0098
:102e40000605be000404be0040c6b30080cf50009b
:102e5000030032006540400080cf50000b003a0074
:102e6000e00f5200e08f5a00e00f5b00e08f5b0044
:102e700006003d006000b8006011b8000404500076
:102e8000858458000605590087855900e80f5700ca
:102e90000400320040002000f00f570038003a00d4
:102ea0000100370030002000e00f5400e08f5c008c
:102eb000e00f5d00e08f5d0004003a00dc08900048
:102ec0008d0120000100e000060032008e00e900c4
:102ed000888060008fba9700e5c07800f1ef9f000e
:102ee0007d012000800078008100e90005003300aa
:102ef0008b05d1000a85d3008984d3000884d300d0
:102f0000f9ff3700089ebe000a96be001200370087
:102f10008d06e9008e00e900848060000fb99700fb
:102f2000e2c1780082fd2f000f01410003f17e0015
:102f3000800078008100e900050033008783d1001c
:102f40000683d3008582d3000482d300f9ff3700c3
:102f5000049ebe000696be003c02be002c03be00ce
:102f6000e00f5200e08f5a00e00f5b00e08f5b0043
:102f70008b0034000d00e000e5ff3c0088003700c6
:102f80002c60900081c6b300814f50000b003200ce
:102f900006003c000004e00008003200e6c05000db
:102fa000814f50004e003a0004003700c1c6b30004
:102fb000814f50004a003a00210037000800e0002d
:102fc00004003a005c0890008d0120000000e00041
:102fd00006003200110009000e84d8000fb99700d6
:102fe000e2c07800f1ef9f007d0120001100090090
:102ff0000e84d8000a003700110009000e04d80022
:103000008d06e9000e81b900020454008fb89700c4
:1030100061417c0081fd2f008f80400082f07e00a6
:10302000000478000800e000020032000d00e0001b
:10303000f1ff3c00cfc4de00614db9002500370030
:10304000e00f5400e08f5c0004003a005c08900040
:103050008d0120000000e000070032006171b9001e
:103060000800be00220307008fb99700e3417800f3
:10307000f3ef9f007d0120006171b9000800be00e0
:103080000b0307000b0037006171b9000800be0098
:10309000e90107008d06e90000f1b90002045400bf
:1030a0000fba9700e4427c0084fd2f000f0242001b
:1030b00005f27e000004be00e00f5000e08f5800d3
:1030c000020032000d00e000efff3c004fcdde00bb
:1030d0008a057800089ebe000a96be0030003700c0
:1030e000e00f5400e08f5c00e00f5d00e08f5d00ba
:1030f00004003a005c0890008d0120000000e00010
:10310000090032006172b900612bb9000800be00ed
:103110000a01be009f0307000fba970064427800bf
:10312000f4ef9f007d0120006172b900612bb900ae
:103130000800be000a01be008f0307000d00370023
:103140006172b900612bb9000800be000a01be001f
:10315000940307008d06e90000f2b900040454004e
:103160008fba970065427c0085fd2f008f82420058
:1031700084f27e00009ebe000296be003c04be00ab
:103180002c05be00e00f5400e08f5c00e00f5d00f6
:10319000e08f5d00020034000d00e000e8ff3c001d
:1031a000e80f570010003a000c1090000038a30000
:1031b0000d003200f78f560006003e0085fd2f00ff
:1031c0008f824200e5c07e0000c3b30080cf500074
:1031d000050032008d06e90002c3b30081fd2f0017
:1031e0008f80400082f07e0078811600120e9800d9
:1031f0006c00900083fd2f008f8141008d80410085
:103200008afe07001c089000dc089000810f500027
:1032100006003d0000805000000e98000c10900049
:103220000040a100001698000f0037000100e000e8
:103230000d003d008c109000f4806000f08f500075
:1032400009003a007c099000fc00900081005100c8
:103250000c09900082805000008050004240a9007c
:1032600001003400000e98004f0778004f06be00a2
:103270004f05be004f04be00cf01b10000000600a4
:103280000400fa00889fbe008a9fbe008c1f780051
:103290000004780001067800f80d90007800900096
:1032a000808555000808900080855500180890001a
:1032b00080855500280890008085550038089000ca
:1032c0008085550048089000808555000002220046
:1032d00090bf9f0000032300a0bf9f000810900034
:1032e0000028a30015003a000b00e0001300340092
:1032f0000b0578008a047800e20f550001003600c3
:1033000029002000c801900009017800ee805700d4
:103310005800900003000100500498000000e000f5
:103320008c0032006808900009004000600c980092
:10333000090555004240a900eeff3c0078019000cd
:103340000200e0000c003400c80190008c007800fe
:103350005800900003000100500498008080eb00aa
:103360000000e0007c003200e80890007800900047
:1033700000804000600c9800880c90000900e0007c
:103380001100340009057800e28f54000100360076
:103390002a002000c80190000a017800ec80570044
:1033a0005800900003000100500498000000e00065
:1033b00068003200680890000a004000600c980025
:1033c0008a845400edff3700180990000200e000e5
:1033d0000c003400c8019000e800900058009000f4
:1033e00003000100500498008080eb000000e00022
:1033f00059003200e8089000180890000080400052
:10340000600c9800a80c90000900e0001100340046
:1034100009057800e28f5400010036002a002000e0
:10342000c80190000a017800ec8057005800900015
:1034300003000100500498000000e0004500320045
:10344000680890000a004000600c98008a845400cc
:10345000edff3700380990000200e0000e00340054
:10346000e80090001808900080804000c80190009b
:103470005800900003000100500498008080eb0089
:103480000000e00034003200e808900038089000a6
:1034900000804000600c9800c80c90000900e0001b
:1034a0001100340009057800e28f54000100360055
:1034b0002a002000c80190000a017800ec80570023
:1034c0005800900003000100500498000000e00044
:1034d00020003200680890000a004000600c98004c
:1034e0008a845400edff3700081090008000eb0044
:1034f0000028a300180032000b00e0001600340082
:103500008b04780009057800e28f54000100360032
:103510002a002000c80190000a017800ee805700c0
:103520005800900003000100500498000000e000e3
:1035300008003200680890000a004000600c980003
:103540008a8454004240a900eeff3c008000eb005a
:10355000010037008080eb00010078004f06780002
:103560004f05be004f04be000080fa0000000600b8
:103570000108780000000600e60040001101780014
:1035800005002800850261006f0161008208780053
:10359000020032001200200011003700a00190004c
:1035a000120020000300e0000d003a00900190009e
:1035b0000300e0000a003a001000e00008003a00b2
:1035c00036003700640340009608780080017800d8
:1035d000530b7800900978000408780070015100be
:1035e000110278000400e000f6ff320013003700fb
:1035f00064024000140378004f33de0083814100f1
:103600008308730080017800d3037800cf3bde008d
:103610001403780006034300068a7300130278003f
:1036200004024200100378004f33de008609720066
:1036300090017800038841000201e90091017800bf
:10364000ef8f5100eaff360010003700800178004c
:10365000530378004f33dd001002d10004087300db
:103660006402400094037800cf3bdd001303d100d7
:1036700086897300110378004f33dd009401d10077
:10368000030a73009108d1000201e800910178005b
:10369000ff8f5100edff3e00ef88610091887200be
:1036a00002007800000006008f1fd10018030700f9
:1036b0008f87e9000000e00000000600809feb001b
:1036c000130307008f87e9000000e00000000600f8
:1036d0002800fa00889fbe008a9fbe008c9fbe0013
:1036e00003866b008f0007006400e1004400320095
:1036f0006408e1004a0032006100e1004600320047
:103700006108e10049003200ec0647006000b800a3
:103710003d02be003d03be00f48657006011b800b4
:103720003d04be003d05be007d0320000b003700b8
:103730000000a0008d06e9001300320004024200e0
:1037400085824a0006034b0087834b00000040003f
:10375000818048000201490083814900080252002b
:1037600089825a000a035b008b835b00f0ff3b00f9
:103770000802420089824a000a034b008b834b00f7
:103780008d06e900edff3a008482720086827200a5
:10379000f707b20087827200010032001500200096
:1037a0001e0490003e0b900006035400e63fb0005c
:1037b0000368a300070032000000a7000500a00076
:1037c0008301d1000281d3008180d3000080d30027
:1037d0000603e8008301d1000281d3008180d30079
:1037e0000080d3000002eb000482d2002100070019
:1037f00003f0a1000cf0a70003f0a0005d0037006b
:10380000640247006408e100570032003400be0043
:103810003401be00f6ff37006108e10052003200bb
:103820006011b8006000b800f1ff370003ff270007
:1038300002002000fbff3700839f68000100e000ca
:1038400002003d0060001000e08018000300e0006e
:1038500002003d0060011100e08119001401070021
:103860004f00e00002003b0060001000e080180004
:103870000000060018002000570020000804530034
:103880000d003d000600200097fc2f000740e100de
:103890001e00340084827200610260008301d10046
:1038a0000281d3008180d3000080d3000804e800a7
:1038b000f8ff3a004700200061046000050474002e
:1038c000040464000d00320061004000e080480004
:1038d00060014900e081490003b8a50007003200fb
:1038e0000603e8006538e10004003a008301d100d6
:1038f0000281d3008180d3000080d300f87f2000b4
:103900000830e10003003500080378006000b800cb
:103910006011b8004433dd00f300b200830173008e
:1039200000000600680447000294be000094be0038
:10393000fc0447008694be008494be000900780011
:10394000bc02070008007800ba020700990078005e
:10395000814f70000b003b000800be00950207007d
:103960004f00b10003003700f3ff2700f2ff2f00e4
:103970006110b9004f06be004f05be004f04be00e7
:103980000080fa000000060081037800a5f307001c
:103990000001be006000b8000478a30013003a00e4
:1039a0006220e10015003e000d0039008301d100c6
:1039b0000281d3008180d3008301d1000281d30032
:1039c0008180d3008301d1000281d3008180d300a4
:1039d0000538b000c42add00f300b2008381720014
:1039e00007f0a70003f0a00000000600f3ff270087
:1039f000f2ff2f006110b900fbff370003ff270023
:103a0000f7ff370014002000b10237001400fa005d
:103a1000889fbe008a9fbe008c9fbe000004be002f
:103a20000205be00680047000a90be000890be0074
:103a3000800207000070a7000bf0a10030432000b7
:103a40009e02900080825200b0fe2f000028e1000c
:103a500011003d00b0fc2f000028e10015003400eb
:103a60001e0990008e0890007e0090000501b000b5
:103a70000201d1008180d3000080d3008502e800dc
:103a8000fbff3a000b00e000baff3b0060001000b3
:103a9000e0801800b7ff3700f0ff2f00f1ff27008c
:103aa0000b00e000b3ff3b000100280000002000f5
:103ab000b0ff37006000b800aeff37004f89de006e
:103ac000820178009d0237004f89de008201780074
:103ad000aa0237002800fa00889fbe008a9fbe0015
:103ae0008c9fbe0003866b008eff07000028a3009a
:103af00064003a000128a30067003a000008a30010
:103b000062003a000108a30065003a001e00900020
:103b1000be08900081064000ed3fb100f4805700e0
:103b2000ee019000111ab8008e099000311bb80008
:103b30009e099000311cb800511db800f485570053
:103b400046000700fe0190003a0007008b85e80060
:103b50003e0007008e09900040000700ee01900033
:103b6000340007008b85e800380007008e099000bc
:103b7000400007009e0990001b18b800890440000f
:103b80000a854800fe019000340007008b85e8009c
:103b900038000700ee019000300007008e09900009
:103ba0001b18b800890440000a8548000a98a30041
:103bb00008003a000402420085824a0006034b00d6
:103bc00087834b0008044c0089844c000a054d0093
:103bd0008d06e90084827200850273004c3add0094
:103be000850272000100320015002000443ade0018
:103bf0001400b2004538de00cb45dd000b0070003c
:103c0000c540de00cb4ddd008b8070004549de00f5
:103c1000cb55dd000b017100c551de000d037800ae
:103c200014ff070003f0a1000cf0a70003f0a000b0
:103c300050ff37001b18b80085024000068348007b
:103c4000e0834b0060044c00070037001b18b800ed
:103c50000603400087834800faff37001b18b800ae
:103c60008703400008844800e0844c0060054d0054
:103c7000000006001b18b8000804400089844800b2
:103c8000faff37000108a30037ff3a005800be00d2
:103c90005801be00e3ff37000008a30032ff3a00de
:103ca00009047800f9ff370007f0a2001b01370074
:103cb0006022b800060220000000d0008180d200ff
:103cc0000482d2008582d2000000a00002025200cd
:103cd00083825a00030031000202420083824a00bc
:103ce0000000a1000603e900f3ff3a00000006000f
:103cf000efff07000400be0000000600020ab90042
:103d0000001bb9000200b80081004200810043009e
:103d100000000600889fbe008a9fbe00300442005b
:103d2000b0844a0030054b0090854b006000b10024
:103d30000898be000a90be000440e10005c8e100fa
:103d400006d0e10007d8e100020031006800400021
:103d50001008e8004f05be004f04be00000006003a
:103d6000889fbe008a9fbe003004be002005be00b2
:103d70000418540005985c0006185d0007985d0063
:103d8000110020000440e10005c8e10006d0e10078
:103d900007d8e100010039008000eb001088100016
:103da0004f05be004f04be00000006001200fa00de
:103db000889fbe008a9fbe008c9fbe00e0b79f0018
:103dc000f1b79f0082bf9f0093bf9f000605be0012
:103dd0000404be000000eb00d0b79f00c0b79f00f6
:103de000b0b79f00a0b79f0090b79f000006eb0000
:103df0005fb19700cfb09700820141003fb09700bc
:103e00000200e00004003d00370007007e805700fc
:103e1000c0ff070003003700330007007e80570013
:103e2000cfff0700dfb697000d00e0000c00350063
:103e30006fb29700ffb297000fbb97009fbb970030
:103e400010002000010020006011b8000002720084
:103e50008182720002037300838373001b000700da
:103e60000c06e80001042000810f5600e0ff3a0034
:103e70000d00e00004003d000802be000a03be0081
:103e80007e805700a3ff07005fa897000000e000b6
:103e900005003a001fb29700afb297003fb39700fa
:103ea000cfb39700090007006fb09700ffb09700ed
:103eb0000fb997009fb997004f06be004f05be008f
:103ec0004f04be000080fa00000006000100070059
:103ed00000000600a4b79f00b5b79f00c6b79f00bb
:103ee000d7b79f00000006004f09de0082817100f5
:103ef000b3b79f004f01de008180400082807000d8
:103f0000a1b79f008fb097004f09de00000040006e
:103f10000200700090b79f007fa897004f01de005d
:103f2000818040008280700081b79f000d000700f3
:103f30004f3ade000000400004007000f0af9f0028
:103f4000080007000402420085824a0006034b0075
:103f500087834b00dfff07000802be000a03be0094
:103f6000000006002fb29700bfb297004fb3970032
:103f7000dfb3970000000600881f780018002000bb
:103f8000881f780089ff07008f87e9004f047800b9
:103f900000000600801feb0084ff07008f87e90008
:103fa00000000600889fbe008a9fbe00e00f500000
:103fb000e08f5800e00f5900e08f59000c003d00e1
:103fc0006044b8006055b8000000540081805c0077
:103fd00002015d0083815d001800200015000700cc
:103fe00008003d00180007000004eb000500370042
:103ff0000004eb000f00070002003d001200070064
:1040000018002000dcff07000800e0000600320076
:104010006022b8006033b8000000520081805a006e
:1040200002015b0083815b004f05be004f04be00b0
:1040300000000600e00f5200e08f5a00e00f5b0026
:10404000e08f5b00000006006044b8006055b800d7
:104050000402540085825c0006035d0087835d00d6
:1040600000000600889fbe008a9fbe008c1f78005b
:10407000e00f5000e08f5800e00f5900e08f59002a
:104080000d003d006044b8006055b80000005400c9
:1040900081805c0002015d0083815d001c002000c6
:1040a0000820e10009a8e1000ab0e1000bb8e10036
:1040b0000d003d00080037000006eb00e00f520045
:1040c000e08f5a00e00f5b00e08f5b0006003d00d0
:1040d0006044b8006055b8000402540085825c005a
:1040e00006035d0087835d00aaff07000c00e00067
:1040f000060032006022b8006033b80000005200b1
:1041000081805a0002015b0083815b004f067800ca
:104110004f05be004f04be00000006002800fa0054
:10412000889fbe008a9fbe008c9fbe000706780055
:10413000878669000c003b00030478008704780040
:1041400008f0a10009f0a100840f5000858f5800ed
:10415000860f5900890f5c00030033000cf0a200a9
:1041600001003a000cf0a100eefd07006400e10040
:104170005f003200780147006408e100610032000e
:104180006c014700748557003200be001201be006a
:104190003a04be001a05be001e039000be0a90003d
:1041a0008503530006003d000004fd008104fd006e
:1041b0000205fd008305fd008703ea000503780082
:1041c0000df8a3000400320060041400e0841c0019
:1041d00060051d00e0851d006022b8007d03200001
:1041e0000d38e1008006eb000b0039004433dd00a0
:1041f000f300b2008301730039003700848272003b
:104200000d027800e10664008b85d1000a85d30099
:104210008984d3000884d3008703e900f7ff3b00bb
:1042200008004000898048000a0149008b8149004c
:1042300004003b0060001000e080180060011900dd
:10424000e08119000358a300090032008d8272003a
:1042500084827200610260008301d1000281d30078
:104260008180d3000080d3000603e8001b003700e4
:104270000348a30017003a000600e00017003400ce
:104280000603e9000d00a3000000480081804800fb
:1042900002014900838149000348a3000f003a004e
:1042a0000600e000090034000603e90000004000b9
:1042b00081804800020149008381490001003a00e1
:1042c0000003eb000348a300f5ff32006022b800b2
:1042d00002003700848272006182660065fd07007b
:1042e00003f0a1000cf0a70003f0a000a1fd37002f
:1042f000640147006408e10002003a000df8a300e1
:1043000099fd3a003200be001201be0099fd37004f
:10431000889fbe008a9fbe008c9fbe000404be0022
:104320000605be00809fbe00829fbe002f000700d2
:10433000040678000800be000a01be002b0007003a
:10434000840678004f03be004f02be008d4f7600fa
:104350007fb0970013003300f0ff2f008b8f6b00ae
:1043600006003b000d0666000c00a7000a0037009f
:1043700007f0a600100020000a003700880f520046
:10438000898f5a008a0f5b008b8f5b000300390016
:104390001000200001003e000000200007f0a700f0
:1043a0000000ea004f06be004f05be004f04be00ed
:1043b00000000600e48240001078a30007003200ed
:1043c000640240001178a3003400be001401be0056
:1043d000040032000330a700000006003500be00d4
:1043e0001501be000330a0000000060005ff2700f5
:1043f00005826100070032000428e100010032005c
:10440000240005000600070001003a0044000500f2
:104410000408050002000700f9ff3a001400050037
:104420006f82610081027000850271008502720056
:1044300000000600800078005002be005003be005d
:104440004439de00f700b200f37f20000301610071
:10445000090032000218e10016003a0085017200de
:1044600083017300838173000008200015003a0067
:1044700040002000130037008501720083017300a3
:104480008381730005003a0004a8be0006a8be00a0
:10449000100020000b0037000201e9000402420076
:1044a00085824a0006034b0087834b000748a30020
:1044b000f9ff32000740a00004a8be0006a8be0015
:1044c0002000200080009800920098000000060064
:1044d000889fbe008a9fbe00841f7800e6f0070018
:1044e0004f00780011003300f0ff2f00838f6c0025
:1044f00006003b00040565000a00a700080037001d
:1045000009f0a6001000200008003700820f5400b8
:10451000838f5c00030039001000200001003e0082
:104520000000200009f0a7000000ea004f05be00cf
:104530004f04be000000e00000000600881f780065
:10454000030478000300e00007003d006000100055
:10455000e080180060011900e081190002003b00b2
:1045600001f02d00030037001400070008f0a70039
:1045700003f0a0004f04780000000600881f7800b8
:10458000030478000300e00007003d006000100015
:10459000e080180060011900e081190002003b0072
:1045a00001f02d0003003700fff0070008f0a7001e
:1045b00001f0a0004f04780000000600889fbe00b4
:1045c0000082700004027100048271002400320035
:1045d00036432000c50020008383cf000a00390045
:1045e0000541b1008283cf00070039000541b100c9
:1045f0008183cf00040039000541b1008083cf00e2
:10460000010039000541b10085c353006022b800a4
:10461000120032000a003b008482720061026000d6
:104620008301d1000281d3008180d3000080d300b8
:104630000603e8008743e800f7ff3a000700370069
:104640000000400081804800020149008381490048
:104650000603e9008743e900f9ff3a0085fc0700fb
:084660004f04be00000006003b
:020000040000fa
:1046680001000000050000000d000000150000001a
:104678001d000000250000002d000000350000008e
:104688003d0000001b5b0000324a0000001b0000d8
:104698005b3100003b310000480000005468000016
:1046a800657200006d6f0000636f00007570000098
:1046b8006c65000020540000657300007420000041
:1046c800426f000078200000436100006c69000020
:1046d8006272000061740000696f00006e000000e3
:1046e80054650000737400002043000075720000d8
:1046f800726500006e74000020430000616c0000c9
:104708006962000072610000746900006f6e000049
:1047180000530000746f0000726500006420000000
:104728006375000072720000656e0000742000005e
:10473800736f00007572000063650000207600004a
:10474800616c00007565000020690000733a000084
:10475800002500002e33000066200000754100008f
:10476800004400006f200000796f000075200000f1
:10477800776100006e740000207400006f20000054
:10478800757000006461000074650000206300001b
:1047980075720000726500006e74000020730000de
:1047a8006f750000726300006520000076610000ec
:1047b8006c750000653f00003a5900002f4e00005c
:1047c80000590000005000006c6500006173000093
:1047d80065200000656e000074650000722000000e
:1047e8006e6500007720000063750000727200009b
:1047f800656e000074200000736f00007572000081
:104808006365000020760000616c0000756500009b
:10481800004900006e200000746800006520000058
:10482800666f0000726d0000617400003a2000009d
:1048380027780000787800002e780000787800004b
:1048480027200000616e00006420000070720000e4
:104858006573000073200000276500006e74000077
:104868006572000027000000596f000075200000e5
:10487800656e00007465000072650000643a00000f
:10488800005300006176000065200000696e00009a
:1048980020740000686500002045000045500000b5
:1048a8004f5200004d3f00003a5900002f4e0000c3
:1048b80000530000617600006564000021000000dc
:1048c8004e6f000074200000536100007665000000
:1048d80064210000004e0000005000006c650000dc
:1048e80061730000652000007072000065730000ad
:1048f80073200000746500007374000020620000db
:1049080075740000746f00006e3a000000410000ea
:1049180044430000207200006566000065720000d4
:10492800656e000063650000207600006f6c000073
:10493800746100006765000020430000616c00009e
:104948006962000072610000746900006f6e000007
:1049580000530000746f00007265000064200000be
:10496800766f00006c74000061670000652000002d
:104978007265000066650000726500006e630000e5
:1049880065200000766100006c750000652000005d
:10499800697300003a000000252e0000356600000b
:1049a80020560000004400006f200000796f0000ce
:1049b80075200000776100006e740000207400000c
:1049c8006f200000757000006461000074650000cd
:1049d800207600006f6c00007461000067650000bd
:1049e800207200006566000065720000656e0000b8
:1049f800636500003f3a0000592f00004e00000098
:104a0800506c0000656100007365000020650000bf
:104a18006e74000065720000207600006f6c000064
:104a28007461000067650000207200006566000080
:104a380065720000656e0000636500002076000066
:104a4800616c0000756500003a000000496e0000c6
:104a58002074000068650000206600006f72000086
:104a68006d610000743a000020270000782e0000d5
:104a7800787800007878000078270000206100002e
:104a88006e640000207000007265000073730000ff
:104a980020270000656e0000746500007227000082
:104aa800002500006c640000006300006f6e0000c9
:104ab80076650000727400006564000020740000d0
:104ac8006f200000696e00007465000067650000d3
:104ad800723a000000530000706c00006974000016
:104ae800206100006e640000207200006561000013
:104af80073730000656d0000626c0000656400005f
:104b08003a000000544300003120000074650000a2
:104b18007374000020630000686100006e6e00007e
:104b2800656c0000207000006f730000697400005d
:104b3800697600006520000067610000696e00006a
:104b480020630000616c000069620000726100006f
:104b5800746900006f6e000000530000746f00005d
:104b680072650000642000005443000031200000fa
:104b7800706f0000736900007469000076650000ba
:104b880020670000616900006e2000007661000067
:104b98006c75000065200000697300003a00000091
:104ba800252e000033660000004400006f2000003e
:104bb800796f000075200000776100006e740000b6
:104bc800207400006f200000757000006461000010
:104bd800746500002054000043310000207000007c
:104be8006f7300006974000069760000652000009a
:104bf80067610000696e00003f3a0000592f00000d
:104c08004e000000506c00006561000073650000f4
:104c1800206500006e7400006572000020540000da
:104c280043310000207000006f73000069740000b9
:104c3800697600006520000067610000696e000069
:104c480020760000616c0000756500003a000000e5
:104c580054430000312000007465000073740000a4
:104c680020630000686100006e6e0000656c000043
:104c7800206e00006567000061740000697600001e
:104c88006520000067610000696e00002063000075
:104c9800616c0000696200007261000074690000c4
:104ca8006f6e000000530000746f00007265000012
:104cb8006420000054430000312000006e650000ad
:104cc80067610000746900007665000020670000d5
:104cd800616900006e200000766100006c750000bc
:104ce80065200000697300003a000000446f00006e
:104cf800207900006f75000020770000616e0000c9
:104d080074200000746f00002075000070640000bb
:104d18006174000065200000544300003120000049
:104d28006e65000067610000746900007665000028
:104d380020670000616900006e3f00003a590000da
:104d48002f4e0000005000006c65000061730000e9
:104d580065200000656e0000746500007220000088
:104d680054430000312000006e65000067610000b8
:104d78007469000076650000206700006169000022
:104d88006e200000766100006c750000653a000036
:104d980000540000433200002074000065730000d6
:104da8007420000063680000616e00006e650000fa
:104db8006c200000706f00007369000074690000c7
:104dc8007665000020670000616900006e20000021
:104dd800636100006c690000627200006174000089
:104de800696f00006e000000537400006f720000cd
:104df8006564000020540000433200002070000069
:104e08006f73000069740000697600006520000077
:104e180067610000696e000020760000616c000088
:104e28007565000020690000733a00000044000026
:104e38006f200000796f0000752000007761000086
:104e48006e740000207400006f2000007570000070
:104e580064610000746500002054000043320000c3
:104e6800207000006f73000069740000697600000c
:104e78006520000067610000696e00003f3a00008d
:104e8800592f00004e000000506c000065610000c2
:104e980073650000206500006e74000065720000f4
:104ea8002054000043320000207000006f7300009f
:104eb80069740000697600006520000067610000e1
:104ec800696e000020760000616c000075650000c6
:104ed8003a000000544300003220000074650000ce
:104ee8007374000020630000686100006e6e0000ab
:104ef800656c0000206e00006567000061740000aa
:104f0800697600006520000067610000696e000096
:104f180020630000616c000069620000726100009b
:104f2800746900006f6e000000530000746f000089
:104f38007265000064200000544300003220000025
:104f48006e65000067610000746900007665000006
:104f580020670000616900006e2000007661000093
:104f68006c75000065200000697300003a000000bd
:104f7800446f0000207900006f7500002077000062
:104f8800616e000074200000746f0000207500003e
:104f98007064000061740000652000005443000044
:104fa800322000006e65000067610000746900002f
:104fb8007665000020670000616900006e3f000010
:104fc8003a5900002f4e0000005000006c650000a8
:104fd8006173000065200000656e000074650000c4
:104fe8007220000054430000322000006e6500006b
:104ff80067610000746900007665000020670000a2
:10500800616900006e200000766100006c75000088
:10501800653a00000054000043330000207400008b
:10502800657300007420000063680000616e000072
:105038006e6500006c200000706f0000736900004e
:10504800746900007665000020670000616900004f
:105058006e200000636100006c690000627200004d
:1050680061740000696f00006e0000005374000056
:105078006f72000065640000205400004333000094
:10508800207000006f7300006974000069760000ea
:105098006520000067610000696e0000207600004e
:1050a800616c00007565000020690000733a00001b
:1050b800004400006f200000796f00007520000098
:1050c800776100006e740000207400006f200000fb
:1050d80075700000646100007465000020540000d1
:1050e80043330000207000006f73000069740000f3
:1050f800697600006520000067610000696e0000a5
:105108003f3a0000592f00004e000000506c00008c
:105118006561000073650000206500006e74000082
:105128006572000020540000433300002070000026
:105138006f73000069740000697600006520000044
:1051480067610000696e000020760000616c000055
:10515800756500003a000000544300003320000049
:10516800746500007374000020630000686100002b
:105178006e6e0000656c0000206e00006567000020
:105188006174000069760000652000006761000016
:10519800696e000020630000616c00006962000015
:1051a80072610000746900006f6e00000053000017
:1051b800746f000072650000642000005443000012
:1051c800332000006e65000067610000746900000c
:1051d8007665000020670000616900006e2000000d
:1051e800766100006c75000065200000697300009e
:1051f8003a000000446f0000207900006f7500003d
:1052080020770000616e000074200000746f0000b9
:1052180020750000706400006174000065200000c3
:1052280054430000332000006e65000067610000f1
:10523800746900007665000020670000616900005d
:105248006e3f00003a5900002f4e00000050000049
:105258006c6500006173000065200000656e000049
:1052680074650000722000005443000033200000e1
:105278006e650000676100007469000076650000d3
:1052880020670000616900006e2000007661000060
:105298006c750000653a0000004900006e7300005c
:1052a800756c000061740000696f00006e200000da
:1052b800726500007369000073740000616e00007d
:1052c800636500002074000065730000742000000e
:1052d80063680000656300006b000000436f000016
:1052e8006e6e000065630000742000003e3100000f
:1052f8002e310000476f0000686d0000206100003b
:105308006e64000020700000726500007373000076
:1053180020270000656e00007465000072270000f9
:1053280000480000696700006820000072650000fe
:105338007369000073740000616e0000636500000b
:105348002064000065740000656300007465000057
:1053580064000000436f00006e6e0000656300008b
:10536800742000003c370000383200004d6f000008
:10537800686d0000206100006e640000207000006d
:10538800726500007373000020270000656e00003e
:10539800746500007227000000480000696700007b
:1053a80068200000726500007369000073740000d3
:1053b800616e000063650000206e00006f740000dd
:1053c80020640000657400006563000074650000d7
:1053d80064210000004c00006f770000207200007c
:1053e8006573000069730000746100006e6300005b
:1053f80065200000646500007465000063740000a7
:1054080065640000004c00006f7700002072000007
:105418006573000069730000746100006e6300002a
:10542800652000006e6f00007420000064650000b5
:1054380074650000637400006564000021000000ca
:10544800506c00006561000073650000207000006a
:10545800726f000076690000646500002069000032
:105468006e700000757400003a000000546500007a
:1054780073740000204e00006f3a0000256400009d
:105488000054000065730000742000006e75000071
:105498006d620000657200002073000061760000f4
:1054a80065640000004300006c6500006172000044
:1054b800696e00006720000045450000505200005a
:1054c8004f4d00000045000045500000524f0000bd
:1054d8004d200000636c00006561000072650000eb
:1054e800640000000a3e00003e5300006f72000096
:1054f800727900002c2000006f6e00006c790000ab
:105508002027000059270000206f000072200000ab
:10551800274e00002720000061720000652000006f
:10552800616300006365000070740000656400003a
:105538000a0000000a3e00003e5300006f7200009f
:10554800727900002c200000736f00006d65000068
:1055580074680000696e000067200000697300002d
:1055680020770000726f00006e6700000a000000dc
:020000040000fa
:10557800c600fa009a080700c422a800009020007c
:10558800d1032000ae08070010ae2f000120240030
:105598005007980061079800e0ce2f0001202400f2
:1055a80070079800010f9800a0ef2f000120240039
:1055b800100f9800210f980070be2f0001202400c2
:1055c800300f9800410f980040df2f000120240081
:1055d800500f9800610f980000002000112024004f
:1055e800700f98000117980020952400d199230086
:1055f800008fbe00d07b230061b0230020079800f5
:1056080031079800c422a80060342a0097070700d1
:10561800b0342a009507070060a72a00c1042000bb
:105628008100470027000900b05878008002b100c7
:10563800e0a92a0042072000020147001d000900d6
:1056480030597800e001b100b019850000407800b9
:10565800210920008e80400042002000110607002a
:105668002e5091000080fb008000eb00c801dd0097
:10567800020020003e5091000080fb008000eb00fb
:10568800c000dd00000020000201400083814800c6
:105698004e5091000082fb008002eb004828dd009c
:1056a800c820de00810070004820dd0002014000b3
:1056b800838148005e5091000080fb008000eb0071
:1056c80002004000838048001017980021179800b6
:1056d8001e109000ae10900028ec07000240220037
:1056e80043972400c8eb0700008fbe00c01985004f
